{
  "contractName": "ERC20Token",
  "abi": [
    {
      "constant": true,
      "inputs": [],
      "name": "totalSupply",
      "outputs": [
        {
          "name": "",
          "type": "uint256"
        }
      ],
      "payable": false,
      "stateMutability": "view",
      "type": "function",
      "signature": "0x18160ddd"
    },
    {
      "constant": true,
      "inputs": [],
      "name": "balance",
      "outputs": [
        {
          "name": "",
          "type": "uint256"
        }
      ],
      "payable": false,
      "stateMutability": "view",
      "type": "function",
      "signature": "0xb69ef8a8"
    },
    {
      "inputs": [],
      "payable": false,
      "stateMutability": "nonpayable",
      "type": "constructor",
      "signature": "constructor"
    }
  ],
  "bytecode": "0x608060405234801561001057600080fd5b50620f424060008190555060d6806100296000396000f3fe6080604052600436106049576000357c0100000000000000000000000000000000000000000000000000000000900463ffffffff16806318160ddd14604e578063b69ef8a8146076575b600080fd5b348015605957600080fd5b506060609e565b6040518082815260200191505060405180910390f35b348015608157600080fd5b50608860a4565b6040518082815260200191505060405180910390f35b60005481565b6001548156fea165627a7a7230582008e2826c821b87c2ddf5378e899350a0538fa17fca95ac5db8441974bfffa4ab0029",
  "source": "pragma solidity ^0.5.0;\r\n\r\ncontract ERC20Token {\r\n    /*What is needed\r\n    Constructor\r\n    Set the total number of tokens\r\n    Read the total number of tokens\r\n     */\r\n    uint256 public totalSupply;\r\n    uint256 public balance;\r\n    constructor() public {\r\n        totalSupply = 1000000;\r\n\r\n    }\r\n}",
  "sourcePath": "C:/Users/hetzer/Documents/GitHub/tokenSale/contracts/ERC20Token.sol",
  "compiler": {
    "name": "solc",
    "version": "0.5.0+commit.1d4f565a.Emscripten.clang"
  },
  "schemaVersion": "3.0.6",
  "updatedAt": "2019-04-04T11:30:08.165Z",
  "devdoc": {
    "methods": {}
  },
  "userdoc": {
    "methods": {}
  }
}